S01600007069725F6C696768745F74656D702E7372656337
S11300000C942A000C9447000C9447000C94880428
S11300100C9447000C9447000C9447000C94470040
S11300200C9447000C9497040C9447000C944700DC
S11300300C9447000C94810A0C9447000C944700DC
S11300400C94EC030C9447000C9447000C94470068
S11300500C94470011241FBECFE5D8E0DEBFCDBF0E
S113006012E0A0E6B0E0E2E1F9E202C005900D92F0
S1130070A43AB107D9F723E0A4EAB2E001C01D9283
S1130080AA33B207E1F70E94310C0C9487140C9444
S113009000005D9BFECF8CB90895672B09F0DFC08B
S11300A0009721F48BB38E7F8BBB0895813091052B
S11300B021F48BB38D7F8BBB08958230910521F49D
S11300C08BB38B7F8BBB08958330910521F48BB365
S11300D0877F8BBB08958430910521F48BB38F7E89
S11300E08BBB08958530910521F48BB38F7D8BBB39
S11300F008958630910521F48BB38F7B8BBB0895D3
S11301008730910521F48BB38F778BBB08958A30A8
S1130110910521F488B38E7F88BB08958B309105B7
S113012021F488B38D7F88BB08958C30910521F428
S113013088B38B7F88BB08958D30910521F488B3F3
S1130140877F88BB08958E30910521F488B38F7E14
S113015088BB08958F30910521F488B38F7D88BBC7
S113016008958031910521F488B38F7B88BB08956D
S11301708131910521F488B38F7788BB0895843148
S1130180910521F485B38E7F85BB08958531910552
S113019021F485B38D7F85BB08958631910521F4C3
S11301A085B38B7F85BB08958731910521F485B391
S11301B0877F85BB08958831910521F485B38F7EAF
S11301C085BB08958931910521F485B38F7D85BB65
S11301D008958A31910521F485B38F7B85BB0895F9
S11301E08B31910521F485B38F7785BB08958E31CA
S11301F0910521F482B38E7F82BB08958F319105DE
S113020021F482B38D7F82BB08958032910521F45D
S113021082B38B7F82BB08958132910521F482B32E
S1130220877F82BB08958232910521F482B38F7E49
S113023082BB08958332910521F482B38F7D82BB02
S113024008958432910521F482B38F7B82BB089593
S1130250859709F0E1C082B38F7782BB0895009738
S113026021F48BB381608BBB08958130910521F417
S11302708BB382608BBB08958230910521F48BB3DC
S113028084608BBB08958330910521F48BB388601F
S11302908BBB08958430910521F48BB380618BBBB3
S11302A008958530910521F48BB380628BBB08954A
S11302B08630910521F48BB380648BBB089587301D
S11302C0910521F48BB380688BBB08958A30910526
S11302D021F488B3816088BB08958B30910521F4A3
S11302E088B3826088BB08958C30910521F488B36B
S11302F0846088BB08958D30910521F488B38860AB
S113030088BB08958E30910521F488B3806188BB41
S113031008958F30910521F488B3806288BB0895D5
S11303208031910521F488B3806488BB08958131BC
S1130330910521F488B3806888BB089584319105C0
S113034021F485B3816085BB08958531910521F43D
S113035085B3826085BB08958631910521F485B308
S1130360846085BB08958731910521F485B3886045
S113037085BB08958831910521F485B3806185BBDF
S113038008958931910521F485B3806285BB089570
S11303908A31910521F485B3806485BB08958B313E
S11303A0910521F485B3806885BB08958E3191054C
S11303B021F482B3816082BB08958F31910521F4C9
S11303C082B3826082BB08958032910521F482B3A6
S11303D0846082BB08958132910521F482B38860E0
S11303E082BB08958232910521F482B3806182BB7D
S11303F008958332910521F482B3806282BB08950B
S11304008432910521F482B3806482BB0895859778
S113041019F482B3806882BB0895CF93C82F80FFFC
S113042007C061E070E082E290E00E944D0006C0E7
S113043060E070E082E290E00E944D00C1FF07C0DE
S113044061E070E083E290E00E944D0006C060E04D
S113045070E083E290E00E944D00C2FF07C061E0BB
S113046070E084E290E00E944D0006C060E070E01D
S113047084E290E00E944D00C3FF07C061E070E099
S113048085E290E00E944D0006C060E070E085E2E5
S113049090E00E944D00CF910895CF93C82F60E063
S11304A070E080E290E00E944D008C2F0E940D02CB
S11304B061E070E081E290E00E944D0089EF90E0FD
S11304C00197F1F700C0000060E070E081E290E085
S11304D00E944D0089EF90E00197F1F700C0000001
S11304E0CF91089580E00E944D0281E00E944D0268
S11304F00895CF93813061F480E8860FC62FCF70C2
S113050082958F700E944D028C2F0E944D020DC067
S1130510823059F480EC860FC62FCF7082958F708D
S11305200E944D028C2F0E944D02CF91089580E0CD
S11305300E940D0287E893E10197F1F700C00000E3
S113054083E00E944D0281EE94E00197F1F700C030
S1130550000083E00E944D028DEB9AE00197F1F7D1
S113056000C0000083E00E944D0282E00E944D0220
S113057082E00E944D0288E00E944D0280E00E94C9
S11305804D028CE00E944D0280E00E944D0286E004
S11305900E944D020895CF93DF93D82FDF70C82FA8
S11305A0C07F61E070E080E290E00E944D008C2FFB
S11305B082958F700E940D0261E070E081E290E00C
S11305C00E944D0089EF90E00197F1F700C0000010
S11305D060E070E081E290E00E944D0089EF90E0DD
S11305E00197F1F700C000008D2F0E940D0261E019
S11305F070E081E290E00E944D0089EF90E0019765
S1130600F1F700C0000060E070E081E290E00E9439
S11306104D0089EF90E00197F1F700C00000DF91F1
S1130620CF9108950F931F93CF93DF938C01C0E074
S1130630D0E003C00E94CB022196F801EC0FFD1F0D
S113064080818111F7CFDF91CF911F910F91089590
S11306500F931F93CF93DF938B01FA01A9014150AC
S1130660510942305105E0F59923C4F49F012F5FED
S11306703F4F4DE2DB01AE0FBF1F4C93873F4FEF5F
S113068094073CF03296DB01A20FB31F40E34C9376
S113069001C0F9019195819591094AC08A3091056B
S11306A0ACF440E3DB01AE0FBF1F4C939F012E5F00
S11306B03F4FDF011196A60FB71F4C930097B9F572
S11306C03396DB01A20FB31F4C9332C084369105DD
S11306D07CF5DB01AE0FBF1F20E32C93319628C0BD
S11306E02330310529F58A30910534F4DB01AE0F4E
S11306F0BF1F20E32C9331960097D1F4D801AE0F9D
S1130700BF1F20E32C93319613C09E012F5F3F4FF0
S11307106AE070E00E94F20FC354DD4F805D88836D
S1130720862F972F2B3031054CF4E90103C0F901D2
S1130730C0E0D0E01816190644F39E01C9010197E0
S11307400FC09F012F5F3F4FE00FF11FDC01A35447
S1130750BD4F4C9140832B3031052CF40197F901A6
S113076099237CF701C0F901F093CB02E093CA020C
S1130770DF91CF911F910F910895CF93DF93EB01F8
S1130780FA0120E030E00DC06AE070E00E94F20F50
S1130790D901A354BD4F805D8C93862F972F2F5F73
S11307A03F4F1816190684F3C90101970CC0AE0116
S11307B04E0F5F1F9C0123543D4FD9012C91DA0148
S11307C02C9301973196992394F7F093CB02E093FD
S11307D0CA02DF91CF9108951F920F920FB60F9224
S11307E01124CF92DF92EF92FF922F933F934F9376
S11307F05F936F937F938F939F93AF93BF93EF9385
S1130800FF9384B195B19093C9028093C80287B1D4
S11308108093C7028091C7028295880F807E80935F
S1130820C7028091C7028295869587708093C7021C
S11308308091C702811120C06091C8027091C902E1
S1130840C090B300D090B400E090B500F090B60032
S113085080E090E00E94CE0EA70196010E94850FD1
S11308606093BB007093BC008093BD009093BE0066
S113087087B1816087B934C08091C702813081F526
S11308806091C8027091C90280E090E00E94CE0E8F
S11308906093B7007093B8008093B9009093BA0046
S11308A097B181E0892787B92091B7003091B800CA
S11308B04091B9005091BA0060E070E483E894E498
S11308C00E94B40D20E030E040E251E40E94260E84
S11308D06093B7007093B8008093B9009093BA0006
S11308E086B1806486B9FF91EF91BF91AF919F91DA
S11308F08F917F916F915F914F913F912F91FF90D5
S1130900EF90DF90CF900F900FBE0F901F9018952F
S11309101F920F920FB60F9211248F9381E0809350
S1130920B2028F910F900FBE0F901F9018951F92D7
S11309300F920FB60F9211248F938091AE028F5FA6
S11309408093AE028091AE028F3039F41092AE02E1
S11309508091AD028F5F8093AD028F910F900FBE97
S11309600F901F9018958091A7028130A9F488B345
S11309708F7388BB88B3806488BB1092AD021092D9
S1130980AE028091AD028823E1F388B38F7388BBF4
S113099082E08093A70208958091A702833099F49E
S11309A088B38F7388BB88B3806888BB1092AD020C
S11309B01092AE028091AD028823E1F388B38F7365
S11309C088BB1092A70208950E94720261E081E040
S11309D00E9479028091AE00882329F08FEB90E089
S11309E00E94120304C084EC90E00E94120368E0A9
S11309F081E00E94790289EC90E00E94120369E090
S1130A0081E00E94790240E050E068EB72E080915E
S1130A10B1009091B2000E94BD03E091CA02F0912E
S1130A20CB02E854FD4F108288EB92E00E9412033F
S1130A3061E082E00E9479028091AD00882329F070
S1130A408BEC90E00E94120304C080ED90E00E94C1
S1130A50120368E082E00E94790289EC90E00E942F
S1130A60120369E082E00E94790240E050E068EB02
S1130A7072E08091AF009091B0000E94BD03E091BC
S1130A80CA02F091CB02E854FD4F108288EB92E049
S1130A900E941203089583B38F701092B2028F30B4
S1130AA009F0A1C08AE78093B6028091B10288233D
S1130AB099F00E94720261E081E00E94790285ED62
S1130AC090E00E9412038BE49DE10197F1F700C0CE
S1130AD000000E94E4047EC08091B002882399F053
S1130AE00E94720261E081E00E94790289EF90E045
S1130AF00E9412038BE49DE10197F1F700C000000E
S1130B000E94E40467C08091A802882399F00E949F
S1130B10720261E081E00E9479028DE191E00E941D
S1130B2012038BE49DE10197F1F700C000000E94DD
S1130B30E40450C08091AC02833009F04BC0809132
S1130B40AF02811147C0E091AB0281E08E0F809328
S1130B50AB02F0E0E453FD4F108290916600809167
S1130B60AA02981302C041E001C040E080E090E096
S1130B7007C0FC01E453FD4F3081231308C00196E4
S1130B80FC01E558FF4F20812111F3CF01C040E063
S1130B90442321F081E08093AF021CC00E947202C2
S1130BA061E081E00E94790282E391E00E941203F5
S1130BB08BE49DE10197F1F700C000000E947202EE
S1130BC061E081E00E94790282E491E00E941203D4
S1130BD01092AB021092B0021092B1021092A802CD
S1130BE01092AA020895883009F0A7C08DE280937C
S1130BF0B6028091AC028330C1F48091AF028111BE
S1130C0014C0E091AB0281E08E0F8093AB02F0E060
S1130C10E453FD4F8DE280838091AA028F5F80931D
S1130C20AA028AE20E94CB0208958091B10288232D
S1130C3059F18091B1009091B20001979093B20064
S1130C408093B100992324F41092B2001092B10061
S1130C5069E081E00E94790221E030E040E050E068
S1130C6068EB72E08091B1009091B2000E94280379
S1130C70E091CA02F091CB02E854FD4F108288EB58
S1130C8092E00E94120308958091B002882359F1E2
S1130C908091AF009091B00005979093B00080933D
S1130CA0AF00992324F41092B0001092AF0069E0D1
S1130CB082E00E94790222E030E040E050E068EBFC
S1130CC072E08091AF009091B0000E942803E091FF
S1130CD0CA02F091CB02E854FD4F108288EB92E0F7
S1130CE00E94120308958091A802882309F41BC36B
S1130CF08091B4029091B50201979093B5028093CC
S1130D00B4026DE081E00E94790223E030E040E02B
S1130D1050E068EB72E08091B4029091B5020E94B9
S1130D202803E091CA02F091CB02E854FD4F1082EF
S1130D3088EB92E00E94120308958C3009F09BC066
S1130D408BE28093B6028091AC028330C1F480912F
S1130D50AF02811114C0E091AB0281E08E0F809349
S1130D60AB02F0E0E453FD4F8BE280838AE20E9401
S1130D70CB028091AA028F5F8093AA02089580918A
S1130D80B102882329F18091B1009091B2000196BB
S1130D909093B2008093B10069E081E00E947902EF
S1130DA021E030E040E050E068EB72E08091B10077
S1130DB09091B2000E942803E091CA02F091CB0204
S1130DC0E854FD4F108288EB92E00E9412030895CC
S1130DD08091B002882329F18091AF009091B000F6
S1130DE005969093B0008093AF0069E082E00E9482
S1130DF0790222E030E040E050E068EB72E080915C
S1130E00AF009091B0000E942803E091CA02F091D3
S1130E10CB02E854FD4F108288EB92E00E9412034B
S1130E2008958091A802882309F47DC28091B402B8
S1130E309091B50201969093B5028093B4026DE04F
S1130E4081E00E94790223E030E040E050E068EB6A
S1130E5072E08091B4029091B5020E942803E0915F
S1130E60CA02F091CB02E854FD4F108288EB92E065
S1130E700E94120308958E3009F040C080E38093ED
S1130E80B6028091AC028330C1F48091AF0281112B
S1130E9014C0E091AB0281E08E0F8093AB02F0E0CE
S1130EA0E453FD4F80E380838091AA028F5F809397
S1130EB0AA028AE20E94CB0208950E94720261E0B3
S1130EC081E00E9479028091AE00882339F083E5A5
S1130ED091E00E9412031092AE0007C086E691E0F2
S1130EE00E94120381E08093AE008BE49DE10197A0
S1130EF0F1F700C000000E94E40408958B3041F52E
S1130F0081E38093B6028091AC028330C1F4809176
S1130F10AF02811114C0E091AB0281E08E0F809387
S1130F20AB02F0E0E453FD4F81E380838AE20E9448
S1130F30CB028091AA028F5F8093AA0208958091C8
S1130F40AE008111F0C198B381E0892788BB089570
S1130F508A30A9F582E38093B6028091AC02833093
S1130F60C1F48091AF02811114C0E091AB0281E021
S1130F708E0F8093AB02F0E0E453FD4F82E3808355
S1130F808091AA028F5F8093AA028AE20E94CB0218
S1130F90089581E08093B1020E94720261E081E0D1
S1130FA00E9479028CE791E00E9412038BE49DE198
S1130FB00197F1F700C000000E94E404089589300D
S1130FC009F040C083E38093B6028091AC02833081
S1130FD0C1F48091AF02811114C0E091AB0281E0B1
S1130FE08E0F8093AB02F0E0E453FD4F83E38083E4
S1130FF08AE20E94CB028091AA028F5F8093AA02A8
S113100008950E94720261E081E00E947902809159
S1131010AD00882339F080EA91E00E941203109217
S1131020AD0007C08DEA91E00E94120381E0809335
S1131030AD008BE49DE10197F1F700C000000E9430
S1131040E4040895873041F584E38093B6028091E7
S1131050AC028330C1F48091AF02811114C0E091DD
S1131060AB0281E08E0F8093AB02F0E0E453FD4FBE
S113107084E380838091AA028F5F8093AA028AE22C
S11310800E94CB0208958091AD0081114CC198B3A8
S113109082E0892788BB08958630A9F585E380938B
S11310A0B6028091AC028330C1F48091AF02811109
S11310B014C0E091AB0281E08E0F8093AB02F0E0AC
S11310C0E453FD4F85E380838AE20E94CB02809142
S11310D0AA028F5F8093AA02089581E08093B002F0
S11310E00E94720261E081E00E9479028DEB91E03E
S11310F00E9412038BE49DE10197F1F700C0000008
S11311000E94E40408958530A9F58091AC028330EF
S1131110C1F48091AF02811114C0E091AB0281E06F
S11311208E0F8093AB02F0E0E453FD4F86E380839F
S11311308091AA028F5F8093AA028AE20E94CB0266
S1131140089586E38093B60281E08093A8020E940A
S1131150720261E081E00E9479028BED91E00E94CD
S113116012038BE49DE10197F1F700C000000E9497
S1131170E4040895833081F58091AC028330C1F496
S11311808091AF02811114C08091AA028F5F809375
S1131190AA02E091AB0281E08E0F8093AB02F0E0F3
S11311A0E453FD4F87E380838AE20E94CB020895D3
S11311B087E38093B6028091A702811104C081E085
S11311C08093A70208958091A702823009F0ABC0F2
S11311D083E08093A7020895823001F588E3809329
S11311E0B6028091AC02833009F09DC08091AF02B9
S11311F0811199C0E091AB0281E08E0F8093AB0224
S1131200F0E0E453FD4F88E380838091AA028F5F6E
S11312108093AA028AE20E94CB020895813001F5EC
S113122089E38093B6028091AC02833009F07BC0DD
S11312308091AF02811177C0E091AB0281E08E0F03
S11312408093AB02F0E0E453FD4F89E38083809107
S1131250AA028F5F8093AA028AE20E94CB020895B9
S1131260843001F58AE28093B6028091AC02833027
S113127009F059C08091AF02811155C0E091AB02D1
S113128081E08E0F8093AB02F0E0E453FD4F8AE2DD
S113129080838091AA028F5F8093AA028AE20E94CF
S11312A0CB02089581111FC08FE28093B602809112
S11312B0AC028330C1F58091AF02811134C0E0915A
S11312C0AB0281E08E0F8093AB02F0E0E453FD4F5C
S11312D08FE280838091AA028F5F8093AA028AE2C0
S11312E00E94CB0208958D30F1F48DE38093B60211
S11312F08091AC028330B9F48091AF02811113C0A4
S1131300E091AB0281E08E0F8093AB02F0E0E453F6
S1131310FD4F8DE380838091AA028F5F8093AA02A0
S11313208AE20E94CB02089593B383B3881F88276F
S1131330881F96FB222720F996FD15C0811113C042
S11313401092B3028091AC02843019F481E080934E
S1131350AC028091AC02833009F063C01092AC02FD
S11313600E94E40408958130D9F4211119C08091B8
S1131370B302811111C083E08093AC021092AF02DA
S11313801092AB020E94720261E081E00E94790235
S113139082E491E00E94120381E08093B3020895F5
S11313A09091B3029130B1F42130A1F49091AC0248
S11313B0943081F482E08093B3028091B4029091DE
S11313C0B50201969093B5028093B40281E08093B4
S11313D0AC02089581110DC0213059F48091B302FB
S11313E0811103C082E08093AC0283E08093B30256
S11313F008959091B3029330A1F4813091F48091D7
S1131400AC02843071F48093B3028091B402909161
S1131410B50201979093B5028093B40281E0809362
S1131420AC0208958091AC02811104C088B38F7C12
S113143088BB08958091AC028130B1F488B38F7C6D
S113144088BB88B3806288BB1092AD021092AE0252
S11314508091AD028823E1F388B38F7C88BB10921E
S1131460AD021092AC0208958091AC028230B9F4BE
S113147088B38F7C88BB88B3806188BB1092AD022F
S11314801092AE028091AD028823E1F388B38F7C81
S113149088BB1092AD0284E08093AC0208958091E1
S11314A0AC028330F1F48091AF028130D1F488B37F
S11314B08F7C88BB88B3806188BB1092AD02109288
S11314C0AE028091AD028823E1F388B38F7C88BBA0
S11314D01092AD0284E08093AC021092AF020E949D
S11314E0E40408951BB88BB182608BB988E18AB992
S11314F08AB180688AB986E880BD10BC8CE089B95D
S113150008951F920F920FB60F9211248F9381E0CA
S11315108093A6028CB18093B7028F910F900FBE77
S11315200F901F90189520E030E006C09091B7020C
S1131530891759F02F5F3F4FF901E959FF4F808117
S11315408111F4CF80E090E0089581E090E0089567
S11315501092A6028091B702803731F08091B702D1
S1131560803521F421E003C021E001C020E0909106
S1131570A40281E0911180E08223C1F081E0809394
S1131580A4020E94720261E081E00E94790285EF68
S113159091E00E9412038AE092E09F938F930E944D
S11315A065101092A9020F900F9008958091B702D0
S11315B08A3041F08091B702803221F08091B702E5
S11315C08D30A1F5913009F04BC14091A90244300E
S11315D068F48BE192E09F938F930E9465100E94C0
S11315E0E4041092A4020F900F90089540936600B3
S11315F080E090E009C0FC01E250FD4F2081FC0135
S1131600E558FF4F20830196242F30E0821793077B
S113161094F30E94E40480E392E09F938F930E94EA
S113162065101092A4020F900F900895992399F0D9
S11316300E94930A892B79F0E091A902E13358F4CE
S113164081E08E0F8093A902F0E08091B702E2500E
S1131650FD4F808308958091A4028823B1F0809186
S1131660B702833629F08091B702833409F0F8C0B9
S11316708DE492E09F938F930E9465101092A402D0
S11316800E94E4040F900F9008958091B702873769
S113169021F08091B7028735D9F488E78093B702A7
S11316A08091A702811104C081E08093A70207C042
S11316B08091A702823019F483E08093A70289E71E
S11316C092E09F938F930E9465100F900F9008955E
S11316D08091B702803349F589E792E09F938F9315
S11316E00E9465100E94720261E081E00E9479020A
S11316F08091AE000F900F90882339F083E591E03C
S11317000E9412031092AE0007C086E691E00E9488
S1131710120381E08093AE008BE49DE10197F1F721
S113172000C000000E94E40408958091B702813350
S113173089F48091AE00811104C098B381E08927B7
S113174088BB89E792E09F938F930E9465100F9066
S11317500F9008958091B702833349F589E792E0A9
S11317609F938F930E9465100E94720261E081E052
S11317700E9479028091AD000F900F90882339F078
S113178080EA91E00E9412031092AD0007C08DEA36
S113179091E00E94120381E08093AD008BE49DE10F
S11317A00197F1F700C000000E94E40408958091BD
S11317B0B702843389F489E792E09F938F930E9460
S11317C065108091AD000F900F90811149C098B3BE
S11317D082E0892788BB08958091B702843621F07E
S11317E08091B7028434E1F589E792E09F938F9367
S11317F00E9465108091AC020F900F908430B1F478
S113180088B38F7C88BB88B3806288BB1092AD029A
S11318101092AE028091AD028823E1F388B38F7CED
S113182088BB1092AD021092AC02089584E08093BC
S1131830AC0288B38F7C88BB88B3806188BB10926C
S1131840AD021092AE028091AD028823E1F388B319
S11318508F7C88BB1092AD021092AF020E94E40408
S11318600895CF93DF93CDB7DEB72A970FB6F894D8
S1131870DEBF0FBECDBF80E884BF84BF8BEF87BBC4
S11318808CEF81BB14BA80E487B98CE886B91FBC9D
S113189081E08EBD84E089BF8BB780628BBF84B743
S11318A0806484BF0E94720A60E070E089E490E082
S11318B00E941A1090933303809332030E9497027C
S11318C081E690E09A83898383E0FE013396DF0109
S11318D0982F1D929A95E9F72EE630E03F832E83E8
S11318E03596DF011D928A95E9F7789486B1806474
S11318F086B90E94E40486B1806486B98091AC0202
S1131900833009F458C08091A502811154C080919C
S1131910A402811150C06091BB007091BC00809101
S1131920BD009091BE000E94980EDC01CB0121E025
S113193030E040E050E0BE016F5F7F4F0E9428031B
S1131940E091CA02F091CB0281E090E08C0F9D1FE0
S1131950E80FF91F108265E081E00E947902CE0150
S113196001960E9412036091B7007091B8008091B3
S1131970B9009091BA000E94980EDC01CB0122E0DC
S113198030E040E050E0BE016A5F7F4F0E942803D0
S1131990E091CA02F091CB02A6E0B0E0AC0FBD1F0B
S11319A0EA0FFB1F108265E082E00E947902CE01FB
S11319B006960E9412038091A60281110E94A80A31
S11319C00E9494090E94120A0E94B3048091AC02FE
S11319D0833041F18091A502811124C08091A40239
S11319E0811120C023E030E040E050E0BE016A5F96
S11319F07F4F8091B4029091B5020E942803E09138
S1131A00CA02F091CB0286E090E08C0F9D1FE80F94
S1131A10F91F10826DE081E00E947902CE010696E2
S1131A200E9412038091B20281110E944B058091A1
S1131A30B4029091B50218161906F4F48091AE0020
S1131A408823D1F06091B1007091B200072E000C90
S1131A50880B990B0E94D00E2091BB003091BC00E2
S1131A604091BD005091BE000E94210E181624F032
S1131A7088B3816088BB07C08091AE00882319F0C9
S1131A8088B38E7F88BB8091B4029091B5021816FA
S1131A901906F4F48091AD008823D1F06091AF0071
S1131AA07091B000072E000C880B990B0E94D00E89
S1131AB02091B7003091B8004091B9005091BA001C
S1131AC00E94800F882324F088B3826088BB07C0FB
S1131AD08091AD00882319F088B38D7F88BB609115
S1131AE0BB007091BC008091BD009091BE0020E0CD
S1131AF030E048EC52E40E94800F882324F49C993F
S1131B0002C09D9B1DC088B3886088BB8091A502DC
S1131B108111F1CE84E692E09F938F930E94651029
S1131B200E94720261E081E00E9479028CE792E0F7
S1131B300E94120381E08093A5020F900F90DBCEE8
S1131B4088B3877F88BB8091A502882351F00E94C7
S1131B50E40482E992E09F938F930E9465100F90B2
S1131B600F901092A502C7CE5058BB27AA270E94F7
S1131B70CC0D0C94460F0E94380F38F00E943F0F92
S1131B8020F039F49F3F19F426F40C94350F0EF429
S1131B90E095E7FB0C942F0FE92F0E94570F58F3A1
S1131BA0BA17620773078407950720F079F4A6F53E
S1131BB00C94790F0EF4E0950B2EBA2FA02D0B0187
S1131BC0B90190010C01CA01A0011124FF27591B7E
S1131BD099F0593F50F4503E68F11A16F040A22F84
S1131BE0232F342F4427585FF3CF469537952795F5
S1131BF0A795F0405395C9F77EF41F16BA0B620BF4
S1131C00730B840BBAF09150A1F0FF0FBB1F661F3A
S1131C10771F881FC2F70EC0BA0F621F731F841F7D
S1131C2048F4879577956795B795F7959E3F08F0A3
S1131C30B0CF9395880F08F09927EE0F9795879565
S1131C4008950E940B0F08F481E008950E943A0E53
S1131C500C94460F0E943F0F58F00E94380F40F03A
S1131C6029F45F3F29F00C942F0F51110C947A0F33
S1131C700C94350F0E94570F68F39923B1F3552341
S1131C8091F3951B550BBB27AA276217730784078B
S1131C9038F09F5F5F4F220F331F441FAA1FA9F321
S1131CA035D00E2E3AF0E0E832D091505040E6950F
S1131CB0001CCAF72BD0FE2F29D0660F771F881F70
S1131CC0BB1F261737074807AB07B0E809F0BB0B63
S1131CD0802DBF01FF2793585F4F3AF09E3F510577
S1131CE078F00C942F0F0C947A0F5F3FE4F3983E36
S1131CF0D4F3869577956795B795F7959F5FC9F760
S1131D00880F911D9695879597F90895E1E0660FE0
S1131D10771F881FBB1F621773078407BA0720F059
S1131D20621B730B840BBA0BEE1F88F7E0950895C2
S1131D300E949F0E6894B1110C947A0F08950E942A
S1131D405F0F88F09F5798F0B92F9927B751B0F0DB
S1131D50E1F0660F771F881F991F1AF0BA95C9F72B
S1131D6014C0B13091F00E94790FB1E008950C9441
S1131D70790F672F782F8827B85F39F0B93FCCF3F4
S1131D80869577956795B395D9F73EF490958095A8
S1131D90709561957F4F8F4F9F4F0895E89409C0C8
S1131DA097FB3EF490958095709561957F4F8F4F8A
S1131DB09F4F9923A9F0F92F96E9BB279395F695A0
S1131DC0879577956795B795F111F8CFFAF4BB0F1E
S1131DD011F460FF1BC06F5F7F4F8F4F9F4F16C082
S1131DE0882311F096E911C0772321F09EE8872F0C
S1131DF0762F05C0662371F096E8862F70E060E0C8
S1131E002AF09A95660F771F881FDAF7880F969540
S1131E10879597F90895990F0008550FAA0BE0E8E4
S1131E20FEEF16161706E807F907C0F01216130698
S1131E30E407F50798F0621B730B840B950B39F4D8
S1131E400A2661F0232B242B252B21F408950A263E
S1131E5009F4A140A6958FEF811D811D089597F97E
S1131E609F6780E870E060E008959FEF80EC08953C
S1131E7000240A9416161706180609060895002465
S1131E800A9412161306140605060895092E0394DF
S1131E90000C11F4882352F0BB0F40F4BF2B11F453
S1131EA060FF04C06F5F7F4F8F4F9F4F089557FDB2
S1131EB09058440F551F59F05F3F71F04795880FB4
S1131EC097FB991F61F09F3F79F08795089512164B
S1131ED013061406551FF2CF4695F1DF08C01616F7
S1131EE017061806991FF1CF8695710561050894A8
S1131EF00895E894BB2766277727CB0197F90895BF
S1131F000E940B0F08F48FEF08950E94980F0C9411
S1131F10460F0E94380F38F00E943F0F20F095239F
S1131F2011F00C942F0F0C94350F11240C947A0F8C
S1131F300E94570F70F3959FC1F3950F50E0551F02
S1131F40629FF001729FBB27F00DB11D639FAA270A
S1131F50F00DB11DAA1F649F6627B00DA11D661F59
S1131F60829F2227B00DA11D621F739FB00DA11D7A
S1131F70621F839FA00D611D221F749F3327A00D34
S1131F80611D231F849F600D211D822F762F6A2FD0
S1131F9011249F5750409AF0F1F088234AF0EE0F35
S1131FA0FF1FBB1F661F771F881F91505040A9F762
S1131FB09E3F510580F00C942F0F0C947A0F5F3FD5
S1131FC0E4F3983ED4F3869577956795B795F7959E
S1131FD0E7959F5FC1F7FE2B880F911D9695879516
S1131FE097F9089597FB072E16F4009407D077FD10
S1131FF009D00E94061007FC05D03EF49095819507
S11320009F4F0895709561957F4F0895AA1BBB1B40
S113201051E107C0AA1FBB1FA617B70710F0A61BE4
S1132020B70B881F991F5A95A9F780959095BC0105
S1132030CD0108950F931F93CF93DF93009731F44D
S11320406115710519F480E090E03AC08B01EC0150
S11320506EE070E081E090E00E945C12FC01892B4C
S113206091F380E883830115110571F013870287CA
S113207081E883838091300390913103892B21F48B
S1132080F0933103E09330032097C9F0D187C087E0
S11320908381826083838091320390913303892BFF
S11320A071F4F0933303E0933203809134039091FD
S11320B03503892B21F4F0933503E0933403CF01E6
S11320C0DF91CF911F910F910895A0E0B0E0EBE66E
S11320D0F0E10C946014AE014B5F5F4FFA01619123
S11320E07191AF0180913203909133030E947B1070
S11320F0E2E00C947C14ABE0B0E0E1E8F0E10C9495
S113210050146C017B018A01FC01178216828381C1
S113211081FFCCC1CE0101963C01F6019381F70108
S113212093FD859193FF81917F01882309F4BAC1BE
S1132130853239F493FD859193FF81917F01853236
S113214029F4B60190E00E94B613E7CF912C212C1C
S1132150312CFFE1F315D8F08B3279F038F480326A
S113216079F08332A1F4232D20611DC08D3261F0FA
S1132170803369F4232D216016C0832D8260382EAC
S1132180E32DE4603E2E2AC0F32DF8601DC037FC19
S11321902DC020ED280F2A3040F08E32B9F436FCE1
S11321A081C1232D2064322E19C036FE06C08AE078
S11321B0989E200D1124922E11C0EAE02E9E200D2F
S11321C01124222EF32DF0623F2E08C08C3621F408
S11321D0832D8068382E02C0883641F4F70193FDC0
S11321E0859193FF81917F018111B3CF982F9F7DBA
S11321F09554933028F40C5F1F4F9FE399830DC0CF
S1132200833631F0833771F0833509F059C021C02A
S1132210F801808189830E5F1F4F88248394912C59
S1132220530113C02801F2E04F0E511CF801A080A5
S1132230B18036FE03C0692D70E002C06FEF7FEFFE
S1132240C5010E94AB134C018201F32DFF773F2E91
S113225016C0280122E0420E511CF801A080B18072
S113226036FE03C0692D70E002C06FEF7FEFC50139
S11322700E9499134C01F32DF0683F2E820133FC28
S11322801BC0822D90E088169906B0F4B60180E256
S113229090E00E94B6132A94F4CFF50137FC85919F
S11322A037FE81915F01B60190E00E94B6132110C0
S11322B02A9421E0821A91088114910471F7E8C0EC
S11322C0843611F0893641F5F80137FE07C0608184
S11322D07181828193810C5F1F4F08C0608171817D
S11322E0072E000C880B990B0E5F1F4FF32DFF7602
S11322F03F2E97FF09C090958095709561957F4F0B
S11323008F4F9F4FF0683F2E2AE030E0A3010E94D8
S1132310F213882E861845C0853731F4232D2F7E7D
S1132320B22E2AE030E025C0932D997FB92E8F3646
S1132330C1F018F4883579F0B5C0803719F08837C2
S113234021F0B0C0E92FE061BE2EB4FE0DC0FB2D1C
S1132350F460BF2E09C034FE0AC0292F2660B22EB5
S113236006C028E030E005C020E130E002C020E1F2
S113237032E0F801B7FE07C06081718182819381E8
S11323800C5F1F4F06C06081718180E090E00E5F9A
S11323901F4FA3010E94F213882E8618FB2DFF778E
S11323A03F2E36FE0DC0232D2E7FA22E891458F405
S11323B034FE0BC032FC09C0832D8E7EA82E05C0CE
S11323C0B82CA32C03C0B82C01C0B92CA4FE0FC098
S11323D0FE01E80DF11D8081803321F49A2D997E50
S11323E0A92E09C0A2FE06C0B394B39404C08A2DDA
S11323F0867809F0B394A3FC11C0A0FE06C0B21401
S113240088F4280C922C9B180EC0B21460F4B60108
S113241080E290E00E94B613B394F7CFB21418F49C
S11324202B1802C0982C212CA4FE10C0B60180E306
S113243090E00E94B613A2FE17C0A1FC03C088E777
S113244090E002C088E590E0B6010CC08A2D867841
S113245059F0A1FE02C08BE201C080E2A7FC8DE22C
S1132460B60190E00E94B613891438F4B60180E3F3
S113247090E00E94B6139A94F7CF8A94F301E80D82
S1132480F11D8081B60190E00E94B6138110F5CF52
S1132490222009F442CEB60180E290E00E94B613F5
S11324A02A94F6CFF6018681978102C08FEF9FEFC1
S11324B02B96E2E10C946C140F931F93CF93DF934C
S11324C0869F8001879F100D969F100D1124C801CF
S11324D00E947812EC01009729F0A80160E070E0F6
S11324E00E94A413CE01DF91CF911F910F91089503
S11324F00F931F93CF93DF938230910510F482E002
S113250090E0E0913803F091390320E030E0A0E05E
S1132510B0E0309719F1408151810281138148174D
S11325205907C8F08417950769F4109731F012968B
S11325300C93129713961C9327C00093380310939F
S1132540390322C02115310519F04217530718F435
S11325509A01BD01EF01DF01F801DBCF211531053F
S1132560F9F0281B390B2430310580F48A819B81D2
S11325706115710521F0FB019383828304C090935C
S1132580390380933803FE01329644C0FE01E20F02
S1132590F31F8193919322503109398328833AC0E0
S11325A02091360330913703232B41F420916200AC
S11325B030916300309337032093360320916000F9
S11325C0309161002115310541F42DB73EB740919A
S11325D0640050916500241B350BE0913603F091A3
S11325E03703E217F307A0F42E1B3F0B2817390714
S11325F078F0AC014E5F5F4F2417350748F04E0F5B
S11326005F1F50933703409336038193919302C025
S1132610E0E0F0E0CF01DF91CF911F910F91089599
S1132620CF93DF93009709F481C0FC0132971382A2
S11326301282A0913803B0913903109781F420815C
S11326403181820F931F209136033091370328176D
S1132650390751F5F0933703E093360367C0ED0172
S113266020E030E0CE17DF0740F44A815B819E0111
S113267041155105F1F0EA01F5CFD383C2834081BE
S11326805181840F951FC817D90759F488819981FE
S1132690840F951F0296918380838A819B81938303
S11326A082832115310529F4F0933903E09338032B
S11326B03DC0E901FB83EA8349915991C40FD51FB9
S11326C0EC17FD0761F480819181840F951F0296B8
S11326D0E90199838883828193819B838A83E0E0E3
S11326E0F0E012968D919C911397009719F0FD01DB
S11326F0DC01F7CF8D919C9111979D012E5F3F4F87
S1132700820F931F2091360330913703281739071E
S113271069F4309729F4109239031092380302C0F7
S113272013821282B0933703A0933603DF91CF91C3
S11327300895FC010590615070400110D8F7809510
S113274090958E0F9F1F0895DC0101C06D93415039
S11327505040E0F70895FC01615070400190011071
S1132760D8F7809590958E0F9F1F08950F931F9310
S1132770CF93DF93FB01238121FD03C08FEF9FEFF4
S11327802CC022FF16C0468157812481358142170F
S1132790530744F4A081B1819D012F5F3F4F3183E2
S11327A020838C93268137812F5F3F4F3783268385
S11327B014C08B01EC01FB010084F185E02D099527
S11327C0892BE1F6D80116968D919C911797019665
S11327D017969C938E931697CE01DF91CF911F91FC
S11327E00F910895FA01AA27283051F1203181F17F
S11327F0E8946F936E7F6E5F7F4F8F4F9F4FAF4F05
S1132800B1E03ED0B4E03CD0670F781F891F9A1F17
S1132810A11D680F791F8A1F911DA11D6A0F711DCB
S1132820811D911DA11D20D009F468943F912AE0D7
S1132830269F11243019305D3193DEF6CF010895BF
S1132840462F4770405D4193B3E00FD0C9F7F6CFF0
S1132850462F4F70405D4A3318F0495D31FD4052B8
S1132860419302D0A9F7EACFB4E0A695979587954E
S113287077956795BA95C9F700976105710508952D
S11328809B01AC010A2E06945795479537952795D9
S1132890BA95C9F7620F731F841F951FA01D089571
S11328A02F923F924F925F926F927F928F929F925C
S11328B0AF92BF92CF92DF92EF92FF920F931F934A
S11328C0CF93DF93CDB7DEB7CA1BDB0B0FB6F894FB
S11328D0DEBF0FBECDBF09942A88398848885F843B
S11328E06E847D848C849B84AA84B984C884DF80AC
S11328F0EE80FD800C811B81AA81B981CE0FD11D90
S11329000FB6F894DEBF0FBECDBFED010895F89465
S1052910FFCFF3
S113291200003A032000043031323334353637387C
S1132922392F2A2D2B3D00000000003132333400B0
S11329320000000000000000000000000000000091
S11329420000000000000000000000000000000081
S11329520000000000000000000000000001011956
S1132962001E000000FA3E000048420000F84154F4
S11329722D413A00542D4D3A002D004C2D413A0080
S11329824C2D4D3A00636C6F73696E672074656DEC
S1132992702E207468726573686F6C64206368615A
S11329A26E6765206D6F646500636C6F73696E6733
S11329B2206C69676874207468726573686F6C64EC
S11329C2206368616E6765206D6F64650048756D8C
S11329D2616E20636F756E742061646A75737465C9
S11329E2640057726F6E672050617373776F7264FD
S11329F22100456E7465722050617373776F72643F
S1132A023A200054656D7065726174757265204D6B
S1132A12616E75616C0054656D7065726174757276
S1132A2265204175746F6D61746963002B2F2D20CD
S1132A32746F206368616E67652074656D7065727A
S1132A426174757265207468726573686F6C640072
S1132A524C69676874204D616E75616C004C6967DE
S1132A626874204175746F6D61746963002B2F2D36
S1132A7220746F206368616E6765206C696768748F
S1132A82207468726573686F6C64002B2F2D207438
S1132A926F2061646A7573742068756D616E20635A
S1132AA26F756E740050617373776F726420726510
S1132AB2736574206D6F646521000A0D4E6577207D
S1132AC250617373776F72643A2000506173737745
S1132AD26F726420746F6F2073686F72740A0D00D2
S1132AE250617373776F72642072657365742073B7
S1132AF275636365737366756C210A0D000A0D5064
S1132B02617373776F726420756E6368616E676553
S1132B12640A0D00466972652048617A6172642014
S1132B224465746563746564210A0D0046697265BF
S1132B322048617A617264204465746563746564D3
S1132B4221004E6F20666972652068617A61726441
S1072B522E0A0D0036
S9030000FC
